:10400000E01A002055AD020071870000758700009E
:10401000A70A0A010042000004180FAC306697009E
:104020000000000000000000000000000000000090
:104030000000000024BD030000000000000000009C
:104040000000000000000000FFFFFFFFFFFFFFFF78
:10405000FFFFFFFF00600F000000000000000000F5
:10406000FFFFFFFFFFFFFFFF8000000000000000D8
:104070000000000000000000000000000000000040
:104080000000000000000000D84A0020D84A0020AC
:10409000E01A002074140400648C030080110020D6
:0C40A0004C11002000E00F0000000000A8
:10420000E01A002055AD020071870000758700009C
:104210007D870000798700008187000051AD020092
:1042200051AD020051AD020051AD020051AD02008E
:104230008587000051AD020051AD020051AD020072
:10424000F8870000F8870000F8870000F887000072
:10425000F887000089A3000081B00000F887000003
:10426000F8870000F887000049A10000F8870000E7
:10427000F8870000F8870000F8870000F887000042
:10428000F8870000F8870000F887000051AD0200B1
:10429000F8870000B99A0000F8870000F88700004E
:1042A000F8870000B99B0000919B0000F887000090
:1042B000F8870000F8870000F88700000904030071
:1042C00095030300910303002DFD02000504030084
:1042D00099030300B90303009D030300A1ED02004D
:1042E0004D040300F8870000F8870000318B0000C0
:1042F000F8870000F8870000F887000051AD020041
:10430000F8870000F8870000F8870000F8870000B1
:10431000F8870000F8870000F8870000F8870000A1
:10432000F8870000F8870000F8870000F887000091
:04433000F88700000A
:10433400F8B500BFF8BC08BC9E467047F8B500BF8E
:10434400F8BC08BC9E46704710B5054C237833B9B9
:10435400044B13B1044800E000BF0123237010BDD7
:10436400B821002000000000940D040008B5034BA0
:104374001BB10349034800E000BF08BD0000000072
:10438400BC210020940D0400154B002B08BF134BD7
:104394009D46A3F5803A00218B460F461348144AE4
:1043A400121A34F04BFC0F4B002B00D098470E4BE5
:1043B400002B00D098470020002104000D000D4878
:1043C400002802D00C4800E000BF34F0F9FB2000C4
:1043D40029000EF035FA34F0DFFB00BF00000800BE
:1043E400E01A00200000000000000000B8210020B6
:1043F400D84A002000000000000000001FB501237F
:104404000022009306210DF10F0310F0D3FC20B914
:104414009DF80F3023B104F0FFF905B05DF804FBFB
:1044240004F00EFAF9E7000030B50024144D85B00D
:104434002C700FF04DF9022817D100900DF10E03E6
:1044440022460321012010F0B5FCBDF80E0048B14E
:10445400204604F009FA4FF47A61284619F0FCFF6B
:1044640005B030BD04F0D8F9FAE70BF089FD054B2F
:104474000090054A0549012011F0F0FEF0E700BF65
:104484007437002095A90300B08D0300B58D030097
:1044940008B50FF01DF902280CD10022064B0120AB
:1044A4001A7008F05DF8BDE808400246034901208F
:1044B40011F0D4BE08BD00BF6C370020148E030079
:1044C400912808B504D1002004F0BAF9002008BDF1
:1044D4009028FBD1002004F09FF9024819F0B0FFA6
:1044E400F4E700BF6C37002008B5024B1B689847FF
:1044F400FEE700BFE81A002013B5044600900D4BF8
:104504000D4A0E49012011F0A9FE8CB114F004FEED
:10451400024618B10A49012011F0A0FE00200AF059
:104524004DFF084B0090084A0449012011F096FE03
:1045340002B010BDDA8D0300B08D0300B58D030009
:10454400E38D030095A903000F8E0300002307B534
:10455400044A00930449054B012011F07FFE03B087
:104564005DF804FBC98D0300B58D0300DA8D0300EB
:10457400FFF744BF09B9FFF741BF704711B90248BB
:1045840019F05EBF704700BF6C37002038B5C37B9D
:1045940005460BB1832038BDC47C2CB902F064F805
:1045A40020B9EB7B002BF5D18120F4E72046F2E71C
:1045B400C37B10B504460BB1832010BDC37C012B13
:1045C40013D003D3402B13D08120F6E7017D8289D9
:1045D4008B1C9A4218D3806811F09AF909F05AFD9D
:1045E400A0B9E37B002BE7D1EEE709F06BFDF7E719
:1045F400037D81899A1C914206D38268591C515CBF
:10460400D05C14F077FFEBE78020D6E70020D4E7F6
:10461400F8B5C37B04460BB18320F8BDC37C052BDE
:1046240029D8DFE803F0032A35414C4F057D828900
:10463400AB1C9A4201D28020EFE7ADB229468068D4
:1046440011F066F90646A06802352844A78911F0DE
:1046540077F9284401308742EDD32946A289A0681E
:1046640011F05CF90146304609F06EFA002848D191
:10467400E37B002BD0D18120CFE7017D82898B1C85
:104684009A42D8D3806811F043F909F07DFAEDE736
:10469400037D81895A1C9142CDD38268591C1144EF
:1046A400D05C09F0A1FAE1E7017D82898B1C9A4272
:1046B400C1D3806811F02CF909F018FBD6E709F092
:1046C40071FBD3E7057D8289AB1C9A42B3D3ADB2AB
:1046D4002946806811F01CF90646A0680235284472
:1046E400A78911F02DF9284401308742A3D3294624
:1046F400A289A06811F012F90146304609F09AFB2C
:10470400B4E7002089E7C37B2DE9F7430446002B77
:1047140040F03E81C37C042B00F0B7800BD8012B02
:1047240000F088803FD3022B00F09480032B00F02C
:10473400A18081203DE0402B00F0DA800FD8052BCA
:1047440000F0B380062BF4D1017D82898B1C9A4240
:104754002ED3806811F0DCF80CF0E0FE61E0412B10
:1047640000F00581422BE4D1037D8289D91D8A4260
:104774001ED39DB28068691CC65C11F0C9F8074657
:10478400A068EB1CA289291D10F8038011F0C0F861
:10479400A36806355B5D42460093394603463046BE
:1047A40015F090F93DE0057D8289AB1C9A4203D255
:1047B400802003B0BDE8F083ADB22946806811F0D3
:1047C400A7F8A289E91C8A42064605F10203EFD341
:1047D400881C8242ECD3A0680535C75C11F098F8B8
:1047E4008046A068B4F80C90284411F0A9F8284435
:1047F40001308145DCD32946A289A06811F08EF8E6
:104804008146A068284411F09BF801300544A06853
:104814004B4610FA85F500954246394630460DF070
:1048240095FA002840F0B680E37B002B14BF832068
:104834008120BEE7057D8289EB1C9A42B8D3ADB2D4
:104844002946806811F064F8A3680235595D0DF0BB
:1048540063FBE6E7057D8289EB1C9A42A8D3ADB2DF
:104864002946806811F054F8A3680235595D0CF0AC
:104874007FFDD6E7017D82898B1C9A4298D380689C
:1048840011F046F80CF0E2FDCBE7057D8289EB1CC4
:104894009A428DD3ADB22946806811F039F8A368E5
:1048A4000235595D0CF086FFBBE7057D8289AB1CA0
:1048B4009A42FFF47DAFADB22946806811F028F822
:1048C400A289E91C8A42064605F10203FFF470AF8F
:1048D400A068C75C8B1C9A4207D311F019F80246F2
:1048E400394630460DF03EF89BE74FF6FF72F7E786
:1048F400057D8289AB1C9A42FFF45AAFADB22946BA
:10490400806811F005F8A289E91C8A42064605F17F
:104914000203FFF44DAF881C8242FFF449AFA06844
:104924000535C75C10F0F4FF8046A068B4F80C901D
:10493400284411F005F8284401308145FFF438AFCC
:10494400A2892946A06810F0E9FF8146A06828449E
:1049540010F0F6FF01300544A0684B4610FA85F5C7
:10496400009542463946304615F094F859E7057DDE
:104974008289EB1C9A42FFF41BAFADB229468068D2
:1049840010F0C6FFA3680235595D15F093F848E7A7
:1049940083200EE700200CE7F8B5C37B04460BB177
:1049A4008320F8BDC37C022B21D004D8ABB1012BEA
:1049B4001AD08120F5E7412B1CD0422B1DD0402B6F
:1049C400F7D1037D81899A1C91422DD38268591CA9
:1049D400515CD05C14F0D8FE01E00BF09BFC28BBCA
:1049E400E37B002BE5D0DBE70BF0AAFCF7E70BF049
:1049F400BDFCF4E714F00EFFF1E7037D8289591D35
:104A04008A4211D39DB28068691CC65C10F080FF95
:104A1400A2890746E91CA06810F07AFF39460246CD
:104A2400304614F037FFDAE78020BAE70020B8E711
:104A3400C37BF7B50446002B40F0D280C37C072B20
:104A440000F2D080DFE813F0080038005900860037
:104A54009B00AA00B600C900037D8289591C8A42C2
:104A6400C0F0C2809DB2691C881C8242C0F0BC8028
:104A7400A068C75C10F04CFFEB1CA6895A1C964238
:104A840028BFA268014624BFD25C2B1D03F101009C
:104A940038BFFF2286422ABFA068FF23C35C384682
:104AA4000AF0D0F8002840F0A180E37B002B14BF6B
:104AB4008320812003B0F0BD067D8589731C9D424F
:104AC400C0F09280B7B2BA1C954207F10103C0F05E
:104AD4008B808068C15C13460132954224BFC25C5E
:104AE400FB1C03F1010738BFFF22BD422CBFC35C8E
:104AF400FF23805D0AF0C3F8D4E7037D8289591C43
:104B04008A4271D39DB2A91C8A4205F101076BD375
:104B1400881C824268D3A068C65CC75D10F0F8FEAA
:104B2400291DB4F80CC04B1C9C4528BFA368024641
:104B340024BF5B5C691D01F1010038BFFF2384457C
:104B440032BFFF21A068415C3046009139460AF02B
:104B5400AEF8A7E7027D8189501C814293B222BF3F
:104B6400A0680133805C03F1010238BFFF20914249
:104B74002ABFA268FF21D15C0AF0B5F892E7017D53
:104B84008289CB1C9A422FD38068455C013110F096
:104B9400BFFE014628460AF063F883E7037D818956
:104BA4009A1C914220D38268591C515CD05C0AF053
:104BB40072F877E7037D8289191D8A4214D38068CD
:104BC40099B2C55C4B1C0231C65C10F0A1FE3146A3
:104BD400024628460AF079F864E70AF08CF861E79F
:104BE400832067E7812065E7802063E7002061E791
:104BF4002DE9F04FC37B8FB004461BB183200FB067
:104C0400BDE8F08FC37C0B2B4DD8DFE813F00C000C
:104C1400550030014C004C004C0057014C004C0036
:104C24004C00C401D801037D8289581C824234BFE0
:104C34004FF0FF08A06899B224BF10F80380013137
:104C440018F0070509D10F1DBA422FD3A06810F040
:104C540059FE0646B9B2FF2711E0022D25D101F114
:104C640008039A42C0F0DF81A5680D4499B24B1C39
:104C74009A421BD34FF0FF36A268575C99B2A289BF
:104C84000B1D9A4215D3A06810F03CFE00903B46E1
:104C94002A463146404607F0EBFE002840F0C18129
:104CA400E37B002BAAD18120A9E700254FF0FF3632
:104CB400D1E74FF0FF30E9E7037D82899DB20333EA
:104CC4009A4218D32946806810F01FFE0646033521
:104CD40016F0070712D1A28905F104084245C0F075
:104CE400AD802946A06810F00DFE83461FFA88F5B2
:104CF4004FF0FF0A18E04FF0FF36E9E7022F40F0CB
:104D04009C80A28905F108039A42C0F08E81A768AD
:104D14002F449DB26B1C9A42C0F090804FF0FF3B31
:104D2400A26812F805A09DB216F0100340F0898025
:104D340016F0600903D0B9F1600F40F07B81A289BD
:104D440005F108039A42C0F07281A16829440991CF
:104D54009DB2B9F1000F03D0B9F1600F40F06B813F
:104D6400AB1C9A42C0F06C812946A0680A9310F0EB
:104D7400CFFD80460A9B9DB2B9F1200F02D0B9F154
:104D8400400F62D1A289AB1C9A420A935DD3294693
:104D9400A06810F0BDFD81460A9B9DB206F0180381
:104DA400082B55D1A2896B1C9A4251D3A268525D3B
:104DB4009DB20A9271044ED5A2892B1D9A424AD300
:104DC4002946A0680C9310F09DFD0C9B0B909DB29E
:104DD40016F4004344D0A28905F110039A423ED34D
:104DE400A2682A440C929DB2F2033BD5A289AB1C63
:104DF4009A4237D32946A0680D9310F089FD0D9B84
:104E04009DB2B30331D5A2896B1C9A422DD3A368FA
:104E14005B5DCDE906030C9BCDF8048005930B9BE9
:104E24003A4604930A9B5946CDE90293099B3046BE
:104E34000093534607F01EFE2FE700274FF0FF3B79
:104E440056E700234FF6FF7809934FF6FF79A5E75D
:104E5400FF230A93AEE74FF0FF330B93B8E7002329
:104E64000C93C1E74FF6FF70CBE7FF23D1E7017D39
:104E74008289481C824234BFFF25A0688BB224BFBC
:104E8400455C0133A90714D59E1CB24211D31946BF
:104E9400A06810F03DFD0146B3B2EA060CD5A08926
:104EA4005A1C904208D3A268D25C284607F09EFDA3
:104EB400F3E64FF6FF71F0E7FF22F6E7037D828900
:104EC400591C8A429DB228BF0135806805F102064B
:104ED4002CBF10F803804FF0FF08B24234D32946A8
:104EE40010F016FD8146B5B2A2896B1CA0689A42E7
:104EF4002ABF10F805A04FF0FF0A9DB218F007066C
:104F040025D105F1040B5A4531D3294610F0FAFC9A
:104F140007461FFA8BF54FF0FF0BA289691C8A42E2
:104F240038BFFF23A06832BF0993435D8DB2284484
:104F340028BF09930A9210F003FD0A9A284401300D
:104F4400824217D280205AE64FF6FF79CCE7022E30
:104F54000CD105F108039A4270D346199DB210F89A
:104F640005B00135ADB24FF0FF37D6E700264FF05C
:104F7400FF37D0E7A2892946A06810F0CFFC099B2F
:104F84000390CDE901B300963B465246494640465C
:104F940007F006FE81E6007DA289031D9A42D1D363
:104FA400A56886B2F31CB21C711C0436EB5CAA5CC7
:104FB400695C285C3544009507F0B0FE6DE6037D1E
:104FC4008289591C8A42BDD380689FB2C65C791C11
:104FD40016F01F0504D110F095FC791D002206E09F
:104FE400022D1BD142184FF0FF3007F1090106F0E2
:104FF4000703022B01BFA3684D1C5B5CA9B206F03A
:10500400180518BFFF23082D12BFFF25A5686D5C86
:1050140001460095304607F06FFF3EE64FF0FF3043
:10502400DCE70020EBE5002521E6002772E60023FB
:1050340009938EE609934FF6FF789DE600268EE7E6
:10504400B9F1200F4FF6FF787FF499AEFDE62DE914
:10505400F043C37B85B00446002B40F0A582C37C9B
:10506400062B00F05B8139D8022B00F0EB8007D8C7
:10507400002B00F08F80012B00F0C58081208FE091
:10508400042B067D858900F02A8140F20381731C7C
:105094009D42C0F08480B7B207F1010C0CF101030A
:1050A4009D427CD3FA1C954207F1020377D38068B2
:1050B400F91CC25C4B1C9D4224BF435C391D01F1A9
:1050C400010738BFFF23BD4234BFFF25455C10F8FC
:1050D4000C10805D009501F0FBFF8BE00A2B00F0C3
:1050E400AD813AD8082B017D828900F07D8140F2A0
:1050F40045818B1C9A4252D38DB22946806810F0A8
:1051040007FCA91CA2898B1C9A42074647D3A068B6
:1051140010F0FEFB291DA2898B1C9A4280463ED3C7
:10512400A06810F0F5FBA91DA6894B1C9E4228BF60
:10513400A368024624BF5B5CE91D01F1010038BF8E
:10514400FF23864232BFFF21A068415C38B2009140
:105154000FFA88F102F0D6F84CE04B2B00F09A815C
:105164004C2B00F0D881472B88D1027D8189501CBB
:10517400814293B222BFA0680133805C03F1010233
:1051840038BFFF2091422ABFA268FF21D15C02F000
:105194005BFA2FE0037D8289591C8A4203D2802066
:1051A40005B0BDE8F0839DB2A91C8A4205F1010750
:1051B400F5D3881C8242F2D3A068C65CC75D10F0A8
:1051C400A7FB291DB4F80CC04B1C9C4528BFA36841
:1051D400024624BF5B5C691D01F1010038BFFF2357
:1051E400844532BFFF21A068415C304600913946B6
:1051F40001F060FE002840F0D981E37B002B14BF4E
:1052040083208120CCE7067D8589731C9D42C6D30B
:10521400B7B2BA1C954207F10103C0D38068C15CE0
:1052240013460132954224BFC25CFB1C03F1010703
:1052340038BFFF22BD422CBFC35CFF23805D01F059
:1052440085FDD7E7077D85897B1C9D42A7D3BEB228
:1052540006F1010C0CF101039D42A0D3F21C95420E
:1052640006F102039BD38068F11CC25C4B1C9D4277
:1052740024BF435C311D01F1010638BFFF23B54251
:1052840034BFFF25455C10F80C10C05D009501F09B
:10529400C3FEAFE7731C9D4281D3B7B2791C8B1C4C
:1052A4009D42FFF47CAF80682A46865D10F030FB97
:1052B400FB1CA5895A1C954228BFA268014624BF3D
:1052C400D25C3B1D03F1010038BFFF2285422ABF97
:1052D400A068FF23C35C304601F054FE8AE7731CC8
:1052E4009D42FFF45CAFB7B2BA1C954207F10103CB
:1052F400FFF455AF8068C15C13460132954224BF68
:10530400C25CFB1C03F1010738BFFF22BD422CBF66
:10531400C35CFF23805D01F07BFD6BE7037D828925
:10532400591C8A42FFF43BAF9DB2A91C8A4205F185
:105334000107FFF434AF881C8242FFF430AFA06849
:10534400C65CC75D10F0E4FA291DB4F80CC04B1C10
:105354009C4528BFA368024624BF5B5C691D01F11C
:10536400010038BFFF23844532BFFF21A068415CA0
:1053740030460091394601F07BFC3BE78B1C9A4296
:10538400FFF40DAF8DB22946806810F0C1FAA91C54
:10539400A2898B1C9A420746FFF401AFA06810F063
:1053A400B7FA291DA2898B1C9A428046FFF4F7AEF6
:1053B400A06810F0ADFAA91DA6894B1C9E4228BF17
:1053C400A368024624BF5B5CE91D01F1010038BFFC
:1053D400FF23864232BFFF21A068415C384600911A
:1053E400414601F0CDFE05E78B1C9A42FFF4D7AE8F
:1053F4008DB22946806810F08BFAA91CA2898B1CF7
:105404009A420746FFF4CBAEA06810F081FA2B1D38
:10541400A6895A1C964228BFA26801B224BFD25C56
:105424006B1D03F1010038BFFF2286422ABFA0682A
:10543400FF23C35C38B201F0F7FEDBE6057D828909
:10544400AB1C9A42FFF4ABAEADB22946806810F0B3
:105454005FFAA91CA2898B1C9A420746FFF49FAEEF
:10546400A06810F055FA2B1DA6895A1C964228BF35
:10547400A268014624BFD25C6B1D03F1010038BF52
:10548400FF2286422ABFA068FF23C35C384601F08E
:10549400B3FFAFE6037D8289591C8A42FFF47FAED5
:1054A4009DB2691C881C8242FFF479AEA068C65C78
:1054B40010F02EFAE91CA2898B1C9A420746FFF4CD
:1054C4006EAEA06810F024FA691DA2898B1C9A4262
:1054D4008046FFF464AEA06810F01AFAEA1DB4F82E
:1054E4000CC0511C8C4528BFA168034624BF895CAD
:1054F40005F1080202F1010038BFFF21844532BFE3
:10550400FF22A068825C3046CDE90012424639464B
:1055140001F08CFF6EE6037D8289591C8A42FFF4F8
:105524003EAE9DB2691C881C8242FFF438AEA0686E
:10553400C65C10F0EDF9E91CA2898B1C9A4207465F
:10554400FFF42DAEA06810F0E3F9691DA2898B1C4D
:105554009A428046FFF423AEA06810F0D9F9E91D01
:10556400A2898B1C9A428146FFF419AEA06810F000
:10557400CFF905F10902A389511C8B4229BFA16807
:10558400FF21895C05F10A02551CAB4232BFFF22A0
:10559400A3689A5C0090CDE901124B464246394615
:1055A400304601F0A9FF25E68320F9E50020F7E560
:1055B400C37B10B504460BB1832010BDC37C412BC3
:1055C40003D0422B0FD08120F7E7037D81895A1C39
:1055D400914212D38268D05C14F066FB78B9E37B05
:1055E400002BE9D1EFE7037D81895A1C914204D352
:1055F4008268D05C14F0A0FBF0E78020DDE7002097
:10560400DBE738B5C37B0446002B437D14BF8325F9
:10561400C325012B0FD10368028A598858790EF0EB
:1056240087FD40B123685B88212B16D12046BDE855
:105634003840FFF7DDBA637D7BB92368228A598835
:1056440058790EF06CFD40B123685B88052B2AD095
:1056540005D8032B1DD021D8B3B1284638BD082B5B
:1056640026D006D8062BF8D12046BDE83840FFF7EF
:1056740093B9B3F5407F20D0B3F5805FEDD12046D8
:10568400BDE83840FFF794BF2046BDE83840FEF738
:105694007DBF2046BDE83840FEF78ABF2046BDE8FE
:1056A4003840FEF7B5BF2046BDE83840FFF72BB8B9
:1056B4002046BDE83840FFF7BBB92046BDE8384076
:1056C400FFF7C5BC704701207047012070470120D7
:1056D40070477047002070470020704700207047D3
:1056E4000020704700207047002070470120704759
:1056F40001207047B5207047002070470020704794
:105704000020704700207047704700207047002039
:105714007047704700207047842070477047704777
:105724007047704770477047704700207047704754
:105734007047704700207047704700F023BD032076
:105744007047002070470000034B1B68187801283D
:1057540008BF0220704700BFE42F002000207047DC
:1057640003460120024AC3E9032000221A7070474D
:105774000100FEFF7047704770470020704700200B
:105784007047002070470020704770470020704722
:1057940070470020704700207047002070470020A9
:1057A4007047002070470020704700207047002099
:1057B40070477047B520704700207047002070473D
:1057C40070470020704770477047B5207047704796
:1057D4007047704700207047704770470023FF21CF
:1057E400084A137082F8783082F8653082F877308E
:1057F40082F8793082F87A1082F87B30024A13609A
:10580400704700BFD42100207C370020F8B50D4636
:105814008C680A6806462849202003F0D8FE6B6885
:105824007BB92649202003F0D2FE20200CF000FC96
:105834002349202003F0E0FEBDE8F84020200CF0CE
:10584400F7BB002EF1D01F4D1F4E204F013C14F822
:10585400013F23B91A49202003F0CEFEE5E7752B5A
:1058640018D0762B18D0772B18D0732B18D0722B16
:1058740018D0712B18D0622B18D06E2B18D02A2B6D
:1058840018D01349134A212B18BF1146202003F0C6
:105894009EFEDCE72946F9E73146F7E73946F5E7A6
:1058A4000D49F3E70D49F1E70D49EFE70D49EDE740
:1058B4000D49EBE70D49E9E7EDE00300C88E03006D
:1058C400798E0300868E03007A8E0300918E030086
:1058D400D28E0300CF8E03009D8E0300A78E03009B
:1058E400B28E0300BD8E0300C78E0300CC8E03006E
:1058F400F0B50026204A92F87B30184452FA80F022
:1059040090F865C090F8665030461C4BA5EB0C052A
:105914001F78EDB2F4B2A54225D90CEB060313446B
:105924005B7811B10CB92D2B17D0782B1FD0582BC5
:1059340005D108B137240AE0013C012C14D9602BAD
:1059440017D8402BF6D83A2B34BF302400241B1B25
:10595400DBB29F4203D900FB07300136DAE70523A7
:10596400002082F87930F0BD10270020F5E70028E8
:10597400E2D05724EBE700BFD4210020EC1A00202A
:10598400FFF72CBF034B93F8770093F87B30C01AD2
:10599400C0B27047D42100200021FFF7A9BF000046
:1059A40010B50A4B93F87B20024453FA82F292F822
:1059B400652013445C78A4F12D0359425941FFF743
:1059C40097FF2D2C08BF404210BD00BFD4210020FA
:1059D40030B50C4A92F87B300344C043DBB2C00FAD
:1059E40039B1D51895F8664095F86550641B241AAA
:1059F4000C7042FA83F393F865301844024B184450
:105A040030BD00BFD4210020D5210020F7B51546B4
:105A14000E460DF107011C46FFF7DAFF9DF807302B
:105A24000746AB4288BF8DF807501CB19DF807406C
:105A34002C1BE4B222463046002100F077FB3019DB
:105A44009DF80720394600F015FB9DF8070003B0C8
:105A5400F0BD38B50C4601230822FFF7D7FF04F147
:105A64000803621E043413F8011D12F8015FA342F7
:105A74001D701170F7D138BD38B5054601460120B7
:105A8400FFF7C4FED5E901436CB91C46084D2368F1
:105A940063B12946202003F09AFD21460020FFF738
:105AA400B5FE0C34F3E71B786E2BEFD038BD00BF86
:105AB40009E3030008B50449202003F088FDBDE88C
:105AC400084020200CF0B4BA3A8E030038B5FFF732
:105AD400F1FF0024054D61190C34631953F80C3C93
:105AE40003B938BD0020FFF791FEF4E7CC9E030014
:105AF4002DE9F84F1F4B204D53F820201F4920203B
:105B040003F065FD2B681BB9BDE8F84FFFF7DEBF56
:105B14001B4FFFF7CFFF0026B946DFF86CA097F8BC
:105B24007B30F4B2013B9C4204DB2868BDE8F84FAB
:105B3400FFF7A2BF47FA86F393F8658000234C442D
:105B4400C84494F8662094F8651003F1010B521AC6
:105B5400DBB2D2B2934205D30A49202003F037FDC9
:105B64000136DCE743445A785146202003F02FFDE8
:105B74005B46E6E7F01A00207C370020358E0300F0
:105B8400D42100200AE3030070E503002DE9F74F58
:105B9400884C94F87730002B00F0A180864B671C6A
:105BA4001B7813F0010F1FD00025844E14E06319F5
:105BB40093F8662093F865302020D21A44FA85F3CE
:105BC40093F86510D2B239440CF02DFA31462020F6
:105BD40003F0FDFC0135EDB294F87730AB42E6D822
:105BE4007749202003F0F3FC002694F87730DFF89F
:105BF400DCE10193734B4FF000094D469EF80080A1
:105C04001EF801CFB8441EF8012CACEB020C5FFA6D
:105C14008CFC1868002852D00138C24619E02AB911
:105C2400002D4AD04FF001090C33F2E71AF8011B9A
:105C3400A1F1410BBBF1190F98BF2031A2F1410B27
:105C440098BFC9B2BBF1190F9CBF2032D2B28A42AD
:105C5400EAD1AAEB0801614510F8012FDFD1002A2F
:105C6400DED11D46584B01361D6094F87B30F6B2E8
:105C7400013384F87B30D5E90123002A35D01B7821
:105C84006E2B31D03F2B23D04FF000094FF0070B80
:105C9400C846042394F87710AA68B14212F8087031
:105CA4002BD8AFB1904498F801302A2B10D0212F73
:105CB4001CBF032384F879300AE01D46B4E7B9F128
:105CC400000F01D1002DCDD10223002584F87930B5
:105CD40094F87900002869D168680FF0E7FA03B0F6
:105CE400BDE8F04FFFF77ABD1346019AB24282D85D
:105CF40003221D4684F87920EAE7732F09D8712F0F
:105D04000BD2212F1FD0622F3CD0002F4BD1032266
:105D140046E0A7F17502022A45D8752F29D0762FBF
:105D24002AD0732F2BD0722F47F6FF7A18BF4FF06B
:105D3400FF3A012148460193FFF7DAFD5045019BE4
:105D440001D984F87930AA68424452782A2A94F80E
:105D540079201CBF08F101085FFA88F8002AB7D13E
:105D6400212F1FBF013609F10109F6B25FFA89F943
:105D740090E74FF0FF0ADCE74FF6FF7AD9E74FF0E0
:105D84007F0AD6E794F87B204A4454FA82F292F8C8
:105D9400652022445278222AD5D07B2AD3D00522EA
:105DA40084F87920CFE784F879B0CCE7FFF7A0FE38
:105DB40095E700BFD4210020502200200AE303000D
:105DC400778E0300CC9E03007C370020392200200C
:105DD4002DE9F34106460D464FF000085C4C5D4F3B
:105DE40066B90DF1070128460CF018F978B1262898
:105DF40000F0A980012384F879304BE0002D00F0F5
:105E0400A28016F8013B013D8DF80730EDB23A78D7
:105E14009DF807300D2A3B7001D10A2BE0D00D2BE1
:105E24000CD0A3F10A025142514122788846042A37
:105E3400D6D8DFE802F0051D263C31000121F4E745
:105E440021B1FFF7A3FE4FF00108C9E7202B63D06F
:105E5400222B07D10223237094F87820642A5DD181
:105E64000623C8E77B2B01D10323F4E70123F2E7E0
:105E740009B9202BF0D194F87730112B3FD10323AB
:105E8400B9E7222BF7D00029E6D005234FF001080B
:105E940084F8793004232370B8F1000FA0D094F86B
:105EA400790008B1FFF724FEFFF798FC98E77D2BF3
:105EB40094F87A0003D1FF28DDD005239BE7602BFB
:105EC40013D8402B13D8392B8CBF002230229A1AB6
:105ED400D2B20F2A10D8FF280BD0FF2302EB0012F6
:105EE4008DF8072084F87A30B6E75722EFE7372297
:105EF400EDE784F87A2073E7202BDED170E70133D5
:105F0400DBB294F8782084F87730234483F8652052
:105F140000232370002994D1884661E72378012B5C
:105F240009D19DF80730A3F1410119299CBF203301
:105F3400DBB28DF807309DF80710A31801325970B1
:105F440084F878204CE7404602B0BDE8F08100BFF9
:105F5400D42100205122002049BA89B24840C0F31C
:105F640003114140080380B24840C3B280EA4310A1
:105F7400704714F0A7B9704770477047704770476F
:105F840070477047704770477047704770470020EC
:105F940070477047704770470020704770477047DC
:105FA40000207047704770470020704770470120F9
:105FB40070470120704770477047704770477047BB
:105FC400704770472DE9F0470024204DDFF89C907E
:105FD400DFF89CA05FFA84F8404618F035F8FF28F3
:105FE40006460CD122461A49287803F005FB287886
:105FF40001340CF01DF8142CECD1BDE8F087154BDE
:1060040047B213EA270338BF534659F824201249EC
:10601400287803F0F1FA002FE9DA14B1B8F1030F8C
:1060240008D10E4B16F0010F0D49287818BF1946F8
:1060340003F0E2FA0A2CDAD10A4B16F0010F0A49EE
:10604400287818BF194603F0D7FAD0E7C91E0020F4
:10605400F18F0300798E030019900300B48F0300BD
:10606400CA8F0300DC8F0300E68F0300608F0300F8
:1060740060E103008842F0B54FEA92031AD804465F
:106084000D469BB29E00871904370434BC4205F1C7
:1060940004053AD1C3EB8333314402EB8303013E5D
:1060A400304411FA83F3994220D011F8012B00F8FF
:1060B400012FF8E7541E204421440D4604469BB2A8
:1060C400A0EB8306043E043CB442A5F104050ED1C2
:1060D4006FF003045C43C3EB833302EB830321447B
:1060E4009BB201342044CB1A994209D1F0BD2F79D7
:1060F4002771EF78E770AF78A7706F786770E2E781
:1061040011F8012900F8012DEEE715F804CC04F884
:1061140004CC15F803CC04F803CC15F802CC04F82D
:1061240002CC15F801CC04F801CCAEE7024490424D
:1061340000D1704700F8011BF9E710B501380139A7
:106144000AB9104606E010F8014F11F8013F9C42CD
:1061540001D0E01A10BD013A92B2F1E782B2074BC6
:106164004AB1000C1A8008BF4FF6CE22044B14BF6C
:1061740018801A8070474BF6EF62F2E7C41B0020C8
:10618400C61B0020094B1888020448BF80F0620037
:1061940042001A80064A1388190444BF83F48053CA
:1061A40083F00B035900118058407047C41B002032
:1061B400C61B00200022034B1870034B1970034BBD
:1061C4001A7070475B2200205A2200205C220020B3
:1061D400024B187800F07F00704700BF5D2200205A
:1061E400034B18780130C0B2187000F07F0070477C
:1061F4005D2200201FB5030A8DF80E30032300939F
:1062040003AB8DF80D0000F0BFF905B05DF804FB99
:106214001FB58DF80F100421030A8DF80E3000917C
:1062240003AB8DF80D0000F0AFF905B05DF804FB89
:106234002DE9F043994689B0BDF840509DF844607B
:10624400074688460DF1090011460822BDF84C4066
:10625400FFF710FF8DF81250012E4FEA15258DF827
:1062640011908DF813508DF8146017D0032E1CD1A3
:10627400082212990DF11500FFF7FCFE9DF850302D
:106284008DF81D3016230093BDF8542002AB41460F
:10629400384600F079F909B0BDE8F0838DF815406F
:1062A400240A8DF816400F23EDE70120F3E71FB50C
:1062B4000C46194602238DF80D2000930A4603ABC1
:1062C4000146204600F060F904B010BD70B586B0F8
:1062D400044616460DF10D0008221D46FFF7CAFEBE
:1062E4000A232A460093342103AB20468DF8156017
:1062F40000F04AF906B070BD30B5002485B0ADF8A1
:106304000A20021D92B2012A1D46ADF80840ADF8DC
:106314000610ADF8044003D94FF6FF72904207D13E
:10632400064A2B46127801A91EF08CFC05B030BD3C
:10633400014601AA20461EF04BFDF7E7C81B0020CA
:106344002DE9F74F9846FF2A16BF474B00241B68D8
:106354000E4618BF9C5C814618BF6408B8F1FF0F55
:1063640016BF414B00271B6815461CBF13F8087065
:106374007F08FFF735FF4FEA19238DF800008DF8E9
:1063840003600621360A68468DF804608DF8019092
:106394008DF802308DF8054018F0D4FBFF2806462E
:1063A40004D11824204603B0BDE8F08F4FEA440B13
:1063B4000BF1070A0AEB4701C9B218F077FB002872
:1063C400EFD10446A3451BD10BF106013A4601F077
:1063D400FE0130465FFA8AF418F02FFC4FF0000AF1
:1063E4005FFA8AF5AF4223D83346BDF83020062140
:1063F4004846FFF781FF0446304618F045FAD1E7D6
:106404002146284618F014FCA11D0246C9B23046A4
:1064140018F013FC611CC9B2284618F009FCE11DF0
:106424000246C9B23046023418F007FCE4B2C9E7A8
:106434006D00EDB22946404618F0FAFB21460246AB
:10644400304618F0FAFB691CC9B2404618F0F0FB5C
:10645400611C0246C9B23046023418F0EEFB0AF160
:10646400010AE4B2BCE700BF681B00202DE9F0413B
:1064740088B00F4602A906460DF0F8F900287CD032
:10648400FFF7AEFE8DF8100017F078FF8DF81100BD
:1064940017F074FF000A8DF81200082239490DF133
:1064A4001300FFF7E7FDBDF808300F218DF81C300D
:1064B4001B0A8DF81D309DF80D3004A88DF81B6063
:1064C4008DF81E3018F03EFBFF28044657D04FF0DD
:1064D40000089DF80D305FFA88F2934208F1010834
:1064E4001DD801220DF10E01204618F06DFB4FF06E
:1064F40000089DF80E305FFA88F2934208F1010813
:1065040024D823463A4620210020FFF7F5FE05460D
:10651400204618F0B9F9284608B0BDE8F0810021FA
:1065240030460DF0CFF905468DF807000DF107014F
:106534000122204618F048FB2D0A01220DF1070123
:1065440020468DF8075018F03FFBC2E70121304682
:106554000DF0B8F905468DF807000DF10701012289
:10656400204618F031FB2D0A01220DF107012046C7
:106574008DF8075018F028FBBBE7A325CBE71825B7
:10658400C9E700BF55490020F8B51C460E4617461A
:106594000546FFF725FE9DF818102070204618F0D8
:1065A400D1FAFF2804460BD003463A462846314622
:1065B400FFF7A2FE0546204618F066F92846F8BD06
:1065C4001825FBE708B5FDF78FFF10F0E3FEBDE8E3
:1065D400084008F0E9BF08B5FFF79BF810F008FF82
:1065E400BDE8084007F0E0BC7047FFF7D6B8FFF7F6
:1065F400DAB830B4BDF80840BDF80C50CDE9024516
:1066040030BC06F043BD38B504460D46FFF7E4F848
:106614002946204608F0E4FF29462046BDE83840D4
:106624000CF04AB9FFF7C1B8FFF7CBB8012200213B
:10663400092011F089BB002307B5CDE900330123FC
:1066440069464FF0FF308DF8023024F0C7FF003068
:1066540018BF012003B05DF804FB0120704701203E
:10666400704701207047000010B5084C23681B6870
:1066740058790EF034F823681B685879FFF74FF8FF
:10668400002011F029F8012010BD00BFC4470020EC
:106694002DE9F84F80460D4614469946164E06F1EC
:1066A400010A0DB9BDE8F88F102D4FF00D024946CF
:1066B40050462F4628BF1027FFF7DCFC0123337018
:1066C40000230D48F473B37320F096FA4246013464
:1066D4000A495FFA87FBE4B212F8013B11F8010F93
:1066E400434002F8013CA2EB0803DBB25B45F3D361
:1066F400ED1BADB29046D4E7622200206122002057
:106704002DE9F04F4FF00209364D85B003930F9BEE
:10671400174601900D220E460146681CBDF83880CC
:106724000293FFF7A7FC49234C46AA462B70284640
:106734004FEA1823AB7385F80F8020F05DFA2B78AD
:1067440083EA17232B706B787B406B704FF0000B40
:1067540021E0C4F1100CA7EB0B031FFA8CFC9BB2D5
:10676400634528BF63463046A11B00EB010C5FFA6A
:106774008CF2A0EB060C1FFA8CFC9C451BD31C442A
:10678400E4B29B44102C1E441FFA8BFB03D1284611
:1067940020F032FA0024BB45DBD314B1504620F07C
:1067A4002BFAB9F1010F4FF00004039E47460BD0BA
:1067B4004FF00109CAE710F801CB1AF802E08CEA9D
:1067C4000E0C0AF802C0D0E7029804220549FFF72C
:1067D40051FC22460421019B029805B0BDE8F04F0C
:1067E400FFF756BF62220020F7B5099FBDF820408D
:1067F4000646CDE900471D46FFF782FF2CB133461C
:10680400012221462846FFF743FF002003B0F0BDD4
:106814002DE9F7431E46054688469146BDF8287083
:106824000D4C0346394630460122FFF731FF33460B
:106834004A4641462846CDE90074FFF761FF042229
:1068440021460B98FFF779FC002814BF7E20002016
:1068540003B0BDE8F08300BF5E2200202DE9F341C0
:106864000C4615461E468046084F99182144384662
:106874000422FFF7FFFBCDE9006763192A4621468E
:106884004046FFF7C5FF02B0BDE8F0817222002048
:106894000020704700207047704770470023034A68
:1068A4001370034A1370034A13707047B8370020FB
:1068B400B0370020C03700201FB5022344F20B027A
:1068C40000934FF440710DF10E030EF073FA10B102
:1068D4000023ADF80E30BDF80E0005B05DF804FBE2
:1068E4001FB5022344F20C0200934FF440710DF1E2
:1068F4000E030EF05FFA18B14FF6FF63ADF80E30D9
:10690400BDF80E0005B05DF804FB81B143888088B2
:1069140083429EBF1A46034610461B1A0A20584358
:10692400B0FBF1F0B0F5803F01D280B270474FF672
:10693400FF7070471FB50123002200934FF440718C
:106944000DF10F030EF036FA20B140F23231044853
:1069540001F0FEFA9DF80F0005B05DF804FB00BFDE
:1069640003AA03001FB50123082200934FF44071CA
:106974000DF10F030EF01EFA18B19121034801F036
:10698400E7FA9DF80F0005B05DF804FB03AA0300C5
:10699400F0B585B00F460546FFF7E4FFB84204465C
:1069A40038D0202304AE06F8017D44F2010200939E
:1069B4004FF44071334628460EF0ABF920B14FF442
:1069C4008171174801F0C4FA2023082200934FF480
:1069D4004071334628460EF09CF920B140F209116B
:1069E4000F4801F0B5FA04EB0710C0B2102813D019
:1069F40007D801280BD002280CD12846FEF791FEB7
:106A040008E0202808D0212801D01228F4E72846DD
:106A1400FEF788FE05B0F0BD2846FEF781FEF9E7D3
:106A240003AA03001FB501220DF10F0300924FF4D6
:106A340040710EF0BFF920B14FF45071034801F0DA
:106A440087FA9DF80F0005B05DF804FB03AA030064
:106A540070B50026074C0546A680FFF76BFF25722C
:106A64006070054C2846E680FFF7DCFFA573608064
:106A740070BD00BF76220020822200201FB50223B1
:106A8400032200934FF440710DF10E030EF092F9BE
:106A940020B140F21B41044801F05AFABDF80E003F
:106AA40005B05DF804FB00BF03AA03001FB5022371
:106AB400042200934FF440710DF10E030EF07AF9A5
:106AC40020B140F22941044801F042FABDF80E0019
:106AD40005B05DF804FB00BF03AA03001FB5022341
:106AE400072200934FF440710DF10E030EF062F98A
:106AF40018B19F21034801F02BFABDF80E0005B030
:106B04005DF804FB03AA03002DE9F843914605460A
:106B14000C46FFF7D1FE07462846FFF7E1FEB9F120
:106B2400000F064608BF4FF00109FFF7B7FE022128
:106B34002846FFF72DFFBC4238BF3C46A4B2B442FE
:106B4400284628BF3446FFF7C9FFDFF83C80A4B2CB
:106B5400A8F800002846FFF7C1FFA8F80440A8F8E9
:106B64000200A8F80690A8F8089088F80E50A8F833
:106B74000A70A8F80C606421BDE8F843014817F0D6
:106B84006BBC00BFB837002092220020F0B50E463F
:106B940085B00621074615460DF0D3FA01230446B5
:106BA40048B300930F220DF10E034FF440713846A1
:106BB4000EF000F910B100238DF80E3001230022ED
:106BC400009306210DF10F0338460EF0F3F850B987
:106BD4009DF80F403CB9FF2E08D1FF2D06D19DF83A
:106BE4000E4004F00104204605B0F0BDF307F6D5CD
:106BF40005F00104F7E71C46F5E700001FB5212264
:106C040004AB23F8021D00924FF4407102220EF0EF
:106C140080F818B1F821034801F09AF905B05DF83D
:106C240004FB00BF03AA030010B50446C088E8B102
:106C3400013881B2E180A07BFFF7E0FFA28863887E
:106C4400E08893420FD0238821899A428BBFD31ABC
:106C54009B1A434343438BBFB3FBF1F3B3FBF1F301
:106C6400D31A9B186380B0FA80F0400910BD00006D
:106C74002DE9F8431E46314B15461B6880461B68B8
:106C84000F465C792046FFF755FE002D08BF01250D
:106C9400B8F1FF0F814601D0FF2F05D1802010F0FD
:106CA4001BFD0120BDE8F8839DF8202031462046D5
:106CB400FFF76CFF0028F2D0C14538D2A8EB0906D3
:106CC4007E2ECCBF00260126FFF7E8FD00212046DA
:106CD400FFF75EFE2046FFF7BBFE194B204683F804
:106CE40002804FF000085E7283F8009083F80190F0
:106CF4009D80DD801C7283F80A80FFF793FE114E9D
:106D040030802046FFF78EFEFE2370802946204601
:106D1400B381B780F5803581B473A6F80A80FFF794
:106D24006DFF0948642117F097FB4046B7E7A9EBCC
:106D340008067F2ED4BF00260126C5E7C4470020DD
:106D44007622002082220020C0370020F8B50D46AC
:106D540011462B4A07461268126856791A4630467D
:106D6400FFF714FF20B9002010F0B6FC0120F8BD95
:106D7400FFF794FD002FF6D000213046FFF708FE00
:106D84003046FFF765FE3046FFF7D4FD1D4C2070FA
:106D94003046FFF7CFFD012F607020D13046FFF75A
:106DA400C9FD012315FA80F080B2FE2884BFFE38A5
:106DB40080B2A07063720A23A380E3800123267249
:106DC400A37200244FF6FF713046FFF717FF0E4BF6
:106DD4000E486421DC8017F03FFB2046C4E7032FF4
:106DE4000BD13046FFF7A6FD83B2A8423CBFFE3369
:106DF4009BB25D1BA5700023DCE78020B4E700BFD5
:106E0400C44700207622002082220020C0370020C0
:106E14002DE9F0410E461146224A80461268126856
:106E240055791A462846FFF7B1FE28B9002010F01C
:106E340053FC0120BDE8F081FFF730FDB8F1000FED
:106E4400F4D0002EF2D0002700212846FFF7A0FD41
:106E54002846FFF7FDFD144B28469F80FFF7E2FD0F
:106E6400124C20802846FFF7DDFDB8F1010F08BF62
:106E7400FE23314660800D480CBFA380A780FFF736
:106E840044FD0026FE230146E08020812846A3819C
:106E9400A5736681FFF7B2FE0548642117F0DCFA9A
:106EA4003046C4E7C4470020762200208222002016
:106EB400C03700202DE9F04117462E4A804612685B
:106EC4000C461268194655799DF818202846FFF794
:106ED4005DFE20B910F000FC0120BDE8F0812846D9
:106EE400FFF728FD002F08BF0127B8F1FF0F01D1DC
:106EF4008020EFE7032CFBD8DFE804F002323909E5
:106F0400A0EB080010F0800F0CBF03240124FFF74E
:106F1400C5FC00212846FFF73BFD2846FFF798FDF6
:106F24002846FFF707FD144E30702846FFF702FD90
:106F3400631E5C425C4174720024104B70703946CD
:106F44002846DC8086F80280B780F7803572B472F8
:106F5400FFF754FE0A48642117F07EFA2046B9E789
:106F6400A0EB080010F0800F18BF0324CFE7012422
:106F7400CDE700BFC44700207622002082220020F3
:106F8400C03700202DE9F0410E4611461E4A8046C6
:106F94001268126855791A462846FFF7F7FD20B99A
:106FA40010F09AFB0120BDE8F081002E08BF0126F5
:106FB400B8F1FF0F01D18020F2E70027FFF76EFC44
:106FC40000212846FFF7E4FC2846FFF741FD0F4B5C
:106FD40028469F80FFF726FD0D4C20802846FFF7AA
:106FE40021FDFE23608031462846A381A4F8048055
:106FF400E6802681A5736781FFF700FE05486421BA
:1070040017F02AFA3846CBE7C4470020762200203E
:1070140082220020C03700202DE9F0411446284A7E
:10702400804612680F461268194655799DF8182053
:107034002846FFF7ABFD28B9002010F04DFB0120D6
:10704400BDE8F0812846FFF775FC002C08BF012439
:107054000646FFF723FCB8F1000FEDD000212846C7
:10706400FFF796FC2846FFF7F3FC164AB8F1010F28
:1070740016705670B3B2B9B219D10B449BB2FE2B41
:1070840084BFFE3B9BB293700123A1B200245372D0
:107094000D4B28469180D18015729472DC80FFF7E5
:1070A400ADFD0A48642117F0D7F92046C5E7BE4272
:1070B4003CBFFE339BB25B1A93700023E5E700BF2D
:1070C400C44700207622002082220020C0370020FE
:1070D4002DE9F0411446264A804612680F4612688C
:1070E400194655799DF818202846FFF74FFD28B911
:1070F400002010F0F1FA0120BDE8F0812846FFF7E6
:1071040091FC002C08BF01240646FFF7C7FBB8F129
:10711400000FEDD000212846FFF73AFC2846FFF780
:1071240097FC0020134BB2B29880134BB8F1010FB7
:107134001A805A8016D13A4492B2FE2A28BFFE22FF
:10714400A1B29A800024FE222846D98019819D7319
:107154005C819A81FFF752FD0848642117F07CF99D
:107164002046C6E7BE4226BFF21BD2B20246E7E77C
:10717400C44700207622002082220020C03700204D
:107184002DE9F8431546244A0746126889461268D1
:10719400194654799DF820202046FFF7F7FC20B9C2
:1071A40010F09AFA0120BDE8F883002D08BF0125EC
:1071B400FFF774FB01212046FFF7EAFB2046FFF7A7
:1071C4005DFC164E4FF6FF6830802046FFF756FCF4
:1071D400B780002770802046F5803581B4737781AD
:1071E400A6F80C80FFF762FC0D4E30802046FFF7B6
:1071F4005DFC294670802046A6F80490F580358110
:10720400B4737781A6F80C80FFF7F8FC0548642175
:1072140017F022F93846C3E7C4470020A222002011
:10722400B2220020B03700202DE9F8430E46114663
:10723400304A07461268126855791A462846FFF7FD
:10724400A5FC28B9002010F047FA0120BDE8F88316
:10725400FFF724FB0FB9002EF4D001212846FFF7D5
:1072640097FB2846FFF70AFC002FCCBF4FF6FF63BD
:107274000023214CB9B2DCBF494289B2208060802E
:107284001D48CCBFA380A380FFF73FFB4FF000084D
:107294004FF6FF690746E08020812846A573A4F8CD
:1072A4000A80A4F80C90FFF701FC144C4645B1B2D7
:1072B400DCBF494289B2208060801048CCBFA4F86A
:1072C4000490A4F80480FFF720FB002363814FF6A9
:1072D400FF6387420146E080208138BF3946284653
:1072E400A573A381FFF78AFC6421054817F0B4F85D
:1072F400A8E700BFC4470020A2220020B222002039
:10730400B03700202DE9F0471746374A0646126881
:107314000D461268194654799DF820202046FFF73F
:1073240035FC20B910F0D8F90120BDE8F0872046DB
:10733400FFF7A4FB86194CD4B6F57F4F4BDAB6B2EF
:107344002046FFF7B3FB451948D4B5F57F4F47DA1C
:10735400ADB2002F08BF0127FFF7A0FA0121204694
:10736400FFF716FB2046FFF789FBDFF888804FF014
:107374000009A8F800002046FFF780FB4FF6FF6ADB
:10738400A8F802002046A8F80460A8F80670A8F837
:10739400087088F80E40A8F80A90A8F80CA0FFF727
:1073A40085FB124E30802046FFF780FB3946708003
:1073B4002046B580F7803781B473A6F80A90A6F802
:1073C4000CA0FFF71BFC0A48642117F045F8484657
:1073D400A8E70026B4E74FF6FF66B1E70025B8E753
:1073E4004FF6FF65B5E700BFC4470020B222002076
:1073F400B0370020A222002070B50E4611460A4A7A
:1074040005461268126854791A462046FFF7BEFBF7
:1074140018B910F061F9012070BD204632462946A2
:10742400FFF772FB0020F4E7C44700202DE9F84F72
:107434001E462E4B83461B6889461B6817465D799A
:107444009DF82C209DF828102846FFF79FFB08B9CB
:10745400002010E02846FFF72FFA80462846FFF761
:107464003FFA8246FFF71AFABBF1000FF0D0B9F1E8
:10747400000F05D1852010F02FF90120BDE8F88F09
:10748400474538BF4746864228BF0646022128465C
:10749400FFF77EFA2846FFF721FB154CBFB2208088
:1074A4002846FFF71BFBBBF1010FB6B2608016D173
:1074B400B24528BFB246A4F804A049460C48FFF7D9
:1074C40024FA0146E08020812846A5736781A681BD
:1074D400FFF794FB6421074816F0BEFFB8E7B845F0
:1074E40038BFB846A4F80480E7E700BFC4470020CB
:1074F40092220020B83700202DE9F0471C462C4B7F
:1075040082461B680F461B6816465D799DF8282045
:107514009DF824102846FFF739FB28B9002010F005
:10752400DBF80120BDE8F0872846FFF7C5F981465E
:107534002846FFF7D5F9002E08BF0126FFF7AEF95C
:10754400BAF1000FEAD0BDF82080A14538BFA146AA
:10755400404528BF404602211FFA80F82846FFF71D
:1075640017FA2846FFF7BAFA124C1FFA89F9208055
:107574002846FFF7B3FABAF1010F6080284613D109
:10758400FFF7ACFA3844A08031462846E6802681CD
:10759400A573A4F80A90A4F80C80FFF72FFB6421CC
:1075A400054816F059FFB9E7FFF798FAC01BEAE758
:1075B400C447002092220020B83700207FB54FF442
:1075C400407104460CF0BDFD00283BD02046FFF777
:1075D400C9F9022836D100900DF10E0344F20D02D0
:1075E4004FF4407120460DF0E5FB20B12046FFF733
:1075F40063F9ADF80E002046BDF80E60FFF770F990
:1076040001230546009300220DF10E0308212046B4
:107614000DF0D0FB10B17F238DF80E309DF80E30A5
:10762400012B0AD9FD2B9FBFA91B5943FE23B1FB94
:10763400F3F18EBF3546691A8DB2002229462046E1
:10764400FFF762FA04B070BD08B5084B0A461B6820
:1076540001461B685879FFF799FA08B1FFF71EF93C
:10766400002010F039F8012008BD00BFC4470020F5
:107674007FB5524CA188257A002933D10026504881
:10768400FFF7D2FA16B9002800F09380FFF706F945
:10769400627804AB03F8012D2022207A00924FF483
:1076A400407100220DF035FB20B140F21311454822
:1076B40000F04EFC424B4FF440715A88987B04AB67
:1076C40003F8022D2022009201220DF022FB20B1AA
:1076D40040F21D113B4800F03BFC2846FEF720F821
:1076E40004B070BD0139A37A89B2A18013B92846C8
:1076F400FFF784FAA0786378834219D02378617AFB
:107704009AB286B2002930D098422CBF314606F195
:10771400FE018A1AA188D2B24A43E388B2FBF3F28B
:10772400D2B290423CBF06F1FE039EB2B21A62701E
:10773400A388002BA2D1A37A002B38D02278667AB2
:1077440093B281B22EB390422CBF0A4601F1FE02DD
:10775400D31A51FA83F39BB2FE2B84BFFE3B9BB238
:107764002070A3700A23A38088E7984284BFFE3266
:1077740092B2931BA288DBB25343E288B3FBF2F3C9
:1077840056FA83F39BB2FE2B84BFFE3B9BB263701D
:10779400CEE7904284BFFE339BB25B1ADAB29042CA
:1077A4003CBF01F1FE0399B220708B1AD9E7012680
:1077B40065E76421044816F04FFE69E7762200204D
:1077C4008222002003AA0300C03700207FB51E4C8C
:1077D4002046A57BFFF728FA06461C48FFF724FA43
:1077E40006B958B3FFF75AF8628804AB23F8022DA0
:1077F4002122A07B00924FF4407103220DF089FAFC
:1078040020B140F22711124800F0A2FB0F4BA07BDD
:107814005A8804AB23F8042D21224FF440710092BE
:1078240004220DF076FA20B140F23111084800F03C
:107834008FFB2846FDF776FF04B070BD6421054830
:1078440016F00AFED0E700BFA2220020B2220020D8
:1078540003AA0300B037002030B5124C85B020468F
:10786400A57BFFF7E1F9C0B1FFF718F8628804AB14
:1078740023F8022D2122A07B00924FF440710722AD
:107884000DF047FA20B140F23B11074800F060FBCD
:107894002846FDF746FF05B030BD6421034816F0C5
:1078A400DBFDE3E79222002003AA0300B83700209F
:1078B4004FF6FF72F0B587B006AB23F8042D02260D
:1078C40000220093CDE90162402344F210024FF4F8
:1078D400407104460DF060FA002842D14FF6FF6370
:1078E40006AD25F8023D0095CDE90160402307224D
:1078F4004FF4407120460DF04FFA90BB2046FEF73E
:10790400DBFF07462046FEF7EBFFBDF81430BB4211
:1079140027D3834225D8ADF8163021230722CDE999
:1079240000534FF44071402320460DF0D2F9C0B902
:10793400302706AD05F8056D402308224FF4407149
:10794400CDE9005720460DF0C4F9CDE90057402396
:1079540044F201024FF4407120468DF813600DF09B
:10796400B8F907B0F0BD0000F7B50024094E0A4F7E
:107974000A4D56F8243003B93B6835F814200849F9
:1079840000920120224601340EF068FC292CF0D12B
:1079940003B0F0BDCC1B0020741C00203C38002038
:1079A400ADAA030008B5FFF7DFFFBDE8084000F00B
:1079B400EFB8000007B50020FDF7EEFFC2B2282A99
:1079C4000DD8084B53F822300BB9074B1B680749F5
:1079D400012031F81210009105490EF03FFC03B06C
:1079E4005DF804FBCC1B0020741C00203C380020F4
:1079F400ADAA0300FFF7B8BF7047000038B50020F8
:107A0400FDF7CAFF04460120FDF7C6FF05460549F8
:107A140001200EF023FCA9B2E0B2BDE8384000F02A
:107A2400CFB800BFB8AA0300F7B50024094E0A4F27
:107A34000A4D56F8243003B93B6835F81420084938
:107A440000920120224601340EF008FC292CF0D1CA
:107A540003B0F0BDCC1B0020741C0020EA370020CA
:107A6400ADAA030073B502AB03E906000446019D09
:107A740016F0DAF90646204616F0E4F99DF80000FF
:107A84008EB1202C0FD82B78012B36D84FF6FF75EA
:107A9400384903EB4313234431F81320AA4202D09C
:107AA400013221F813204FF6FF71334B334A33F878
:107AB400145032F814608D421CBF691C23F8141052
:107AC40004F0FD01092930D1998A928A0144914236
:107AD40035DA998233F81430B34204D3B54202D272
:107AE4002046FDF720FE0025254BEA5CA24228D063
:107AF4000135112DF9D102B070BD022BD3D14FF64F
:107B0400FF714FF6FF751B4B33F814208A421CBFDC
:107B1400013223F8142004F1210133F81120AA4280
:107B24001CBF013223F81120BDE71D2CD2D1598F7F
:107B34000144508F814201DA5987CBE7928A9A82B5
:107B4400C8E72CF0FAF80F4B04461B78834203D89D
:107B5400E0210D4800F0FCF94FF6FF710B4A04EBED
:107B640004142C4432F814308B42C4D0013322F86C
:107B74001430C0E78E3800203C380020EA3700205B
:107B840036AE0300A91B0020A0AD0300C8370020B7
:107B9400522200210148FEF7C9BA00BF3C38002038
:107BA4005222FF210148FEF7C1BA00BFEA37002084
:107BB40008B5FFF7EDFFBDE80840FFF7F1BF00008F
:107BC400014B23F810107047EA370020032310B547
:107BD4000F4C1022C4E904330E4B0F49E361002318
:107BE400A16121660D49E01DC4E919120C49A36283
:107BF4006362E3622367E3666367226231F026F817
:107C04000849204631F022F82023A37110BD00BF9B
:107C1400003C0020D222002047AE0300C2220020F4
:107C240050AE030054AE03002DE9F84F1F4B164627
:107C34001A7881468A4698460AB9FFF7C7FF18277B
:107C440007FB09873D6FD7F86CB05D452BD9BC6E37
:107C5400796E641BB44228BF3446294450462246F8
:107C640030F0E1FFBB6E2544AB4208BF0025A244BF
:107C7400361BABEB050B5E4528BF5E4656B1182399
:107C840003FB0983596E32462944504630F0CBFF3A
:107C94003444354424B1182303FB0988C8F87050D0
:107CA4002046BDE8F88F0024E3E700BF003C002035
:107CB400F8B504460E46174603F075FE3A460546E7
:107CC40031462046FFF7B0FF0446284603F071FE14
:107CD4002046F8BD2DE9F843124D1E462B78814607
:107CE400884617460BB9FFF771FF03F05CFE0024CA
:107CF4004FF0180C69690CFB04535A6E2AB1013415
:107D0400A142F8DC4FF0FF3407E0A142FADDC3E9F9
:107D140018989F661A67DA665E6703F04AFE204683
:107D2400BDE8F883003C0020FFF750BF70B54FF06A
:107D340060441A4B00261A68194D42F001021A6079
:107D4400DA680C2042F08072DA60164BC4F8B03F57
:107D54000223C4F8006EC4F8806EC5F8F03003F056
:107D64004BFB114B00F5D52000F2FC40B0FBF3F0C7
:107D74000E4A0F4B01382861C4F8406E1A600D4B4F
:107D8400C4F8803E4FF48073C5F80433D4F8003E41
:107D940043F48073C4F8003E70BD00BFF0ED00E012
:107DA400000004E055CEACC5F8590D00FF030040B7
:107DB400001000E00D00010010B501240E4B00205E
:107DC4001C6003F08DFE234604220321002003F0EF
:107DD400CFFE20462CF080FDFFF7A8FF2CF07DFDA0
:107DE400FFF7A2FF2346402204490548FFF772FF2C
:107DF400044B1860C00F10BD44D40340E22200209D
:107E04005BAE0300781C0020024B1868003018BFDA
:107E140001207047F0ED00E0D123054A0370137888
:107E24004170090A8170591CC37011700420704795
:107E3400222300202DE9F74F354E074633681C5C9A
:107E4400032C63D9DFF8CC8023F055F84FF6FF7A82
:107E54000025C1460534E4B20190D8F800204AB1A7
:107E6400AC4207D923F047F8019BC01A80B2B0F5A1
:107E7400FA7F05D9601B18BF012003B0BDE8F08F5D
:107E8400002D3DD0012D1DD14FF0020B3268D55D80
:107E94004FF06042D2F8801ECB0711D51146D9F8B5
:107EA4000C0040F08070C9F80C00D1F8000E40F4CA
:107EB4008070C1F8000E086A0028F0D082F82050C3
:107EC4005D46CAE7E21E05F1010B95425FFA8BFBA2
:107ED40002D15FFA8AF5DBE7A21E954202D1CAF30A
:107EE4000725D5E7621E95420ED0A91EC9B23846B1
:107EF40016F09EFE51460546FEF72EF88246C7E769
:107F04005B254FF0010BC3E75D25C1E70120B4E712
:107F1400681B0020F0ED00E010B50B4B90B0402240
:107F240069461868FFF7C4FE58B1C1B2684616F036
:107F340009FE0446014612202CF04EFC204616F0A1
:107F4400A3FC10B010BD00BF781C002042DE7047B7
:107F540038B504460D4600F01BFE03F01CFD29460F
:107F640020462CF005FC2B462246054901200AF048
:107F740065F829462046BDE83840FFF7E7BF00BF53
:107F84006BAE03006D4B2DE9F0415A686C4CA26551
:107F94005A6AE2656B4AD2F800122166D2F80422CA
:107FA40062669A6AA266DA6AE2661A6B22675A6B9A
:107FB4006267A26BDB6B12F0040FA367D4E90F5363
:107FC40018BF1D4622F084FF0022854203466065E7
:107FD40022655DD35C4A95425AD8AA696264E9690C
:107FE400A164B4F85810C1F30801062954D15749C3
:107FF4008A4251D356498A424ED211884DF6426282
:10800400914249D140F201706268C4F89420A26898
:10801400C4F898204F4A5049934238BF13460A4641
:108024008B423CD3D31AE3640023C4E91F33C4E96D
:108034002133C4E92333484E444FDFF814C1AE4220
:1080440033D8D4E91FC7D4E92165D4E923124FF00A
:10805400000E013BDBB2FF2B42D1BEF1000F05D075
:10806400C4E91FC7C4E92165C4E92312B4F8583030
:10807400C3F30803052B57D03CD8032B47D0042B5C
:1080840058D040F60722013B4B2B98BF104640E0E6
:1080940000221D46C4E911224FF42060BAE71E688D
:1080A400B6F1CD3FBED10433BAE756F8042DBA4237
:1080B400C5D36245C3D2D107C1D5002104EB010E5B
:1080C400DEF87CE09645BAD004311829F6D10BB914
:1080D400052301E0013BDBB204EB8301CA67AEE791
:1080E400E0464FF0010EBC4637462E460D4611467B
:1080F4004246AEE70C2B1AD03B2B0CD0062BC0D13A
:1081040040F60423B0F5206F08BF184601E040F69E
:108114000120BDE8F081114B9B6913F0020F40F27E
:10812400025318BF1846F4E740F60320F1E740F67F
:108134000520EEE740F60220EBE700BF00ED00E08B
:108144000000002000E100E0C01A00204C430000C1
:10815400648C03009C000020E01A00200080014A87
:10816400022804D003280CBF0120022070470020FD
:10817400704700004FF480732DE9F04385B0ADF8EB
:108184000C30002401F0E6FC0127DFF84480DFF81E
:10819400449003ABE35C012218F8336008EBC3039B
:1081A4005D6830460023294603F0E2FC4946E8B204
:1081B40001F0DEFCCDE9007701232A46294630464A
:1081C40003F090FC14B105B0BDE8F0830124E0E7AE
:1081D40080AE03005D82000008B5FFF7C1FF0228EE
:1081E40016BF024B0020185C08BD00BF23230020EB
:1081F40008B5FFF7B5FF02281CBF014B195408BD91
:108204002323002008B5FFF7ABFF022805D0034A5B
:10821400135CB3FA83F35B09135408BD23230020D2
:1082240008B5FFF79DFF02280FD03021084A12F845
:10823400303002EBC0025943064B50685B5823FAB6
:1082440000F0C04300F0010008BD0020FCE700BFBF
:1082540080AE030014C0034070B504460026FFF747
:10826400DFFF054601E000261D462046FFF7D8FF44
:10827400A8420346F7D10136052EF2D12046FFF776
:10828400ABFFA8420BD029462046FFF7B1FF20469A
:10829400FFF7A2FF014620460BF06CF970BD2046A3
:1082A400FFF7B0FF2046FFF797FF014620460BF08B
:1082B40061F92046FFF7A6FFE9E7000010B503F0D7
:1082C40089FD044603F07EFD0022012101FA02F338
:1082D400234014D01B4B33F812301B4A062B13D007
:1082E40040F207218B420DD1184919480C68844289
:1082F40008D14CF23C334B800B88138012E00132DE
:10830400102AE3D1104AF8E74FF20F010F4B5888B7
:10831400884214D11988B1F5406F10D211804CF203
:108324003C325A80084B1A8840F201739A4201BFCA
:10833400084B094AD2E90001C3E9000110BD4FF41A
:10834400C061EBE790AE0300302300200000002062
:1083540007020FF02823002094000020014B188806
:10836400000A704730230020014B1888704700BF73
:10837400302300202DE9F04F4D4C0546A36BD4F873
:1083840050B05A0747BF0027B846D4F84CB0D4F8C9
:108394005480D4F840A05DBF464FD4F83CA0DFF829
:1083A4003C91DFF83C9113F0080F434B434A18BF4C
:1083B4001A46B7EB08061FBF6421730801FB0B3391
:1083C400B3FBF6F387B01CBF9BB205933C494B4605
:1083D400CDE9017ACDF8008008BF059601F00CF9CB
:1083E400B3B2CDE900931FFA8BF2059B35492846B9
:1083F40001F002F9A36B5B070AD49C3E5E4507D1EA
:10840400626D314B9A4203D23049284601F0F4F8A8
:10841400BA4501D8C24504D24A462D49284601F03E
:10842400EBF8284609F004FE236E0BB9636EBBB368
:108434002849284601F0CBF800260127DFF8A4805C
:10844400DFF8A490226E07FA06F3134207D058F817
:10845400262013781BB14946284601F0B8F80136A6
:10846400202EEFD100260127DFF87880DFF87890FE
:10847400626E07FA06F3134209D008EB8603D3F8B9
:10848400802013781BB14946284601F0A0F8013634
:10849400092EEDD1284607B0BDE8F04F01F0A6B88B
:1084A40028460D4907B0BDE8F04F01F0A5B800BF5C
:1084B40000000020E01A002097B103009EB10300E1
:1084C400A6B10300D4B103009C0000200DB2030048
:1084D40039B2030057B2030086B2030092B103001D
:1084E400E7CA03009CB20300ECE003002DE9F84363
:1084F4000446FFF739FF40F60123984239D010D8DB
:1085040040F2025398421DD040F20173984224D0A5
:1085140040F20153984213D16549204601F06CF8AA
:1085240022E040F6032398426CD03DD340F6042366
:10853400984200F09C8040F60523984200F0B580F4
:10854400BDE8F8835B49204601F056F85A4B5B4975
:108554005A6C204601F050F806E0574A5849D2E9CF
:108564002523204601F048F82046BDE8F84309F0E9
:108574005FBD514D5349204601F03EF895F86C30EB
:108584009F0703D55049204601F036F895F86F301F
:108594005E0603D54D49204601F02EF895F96F305B
:1085A400002BE1DA4A49B8E7434D4A49204601F035
:1085B40023F895F86830980704D06A6C3F49204640
:1085C40001F01AF895F96830002B04DA6A6F424911
:1085D400204601F011F800260127DFF80881DFF8B2
:1085E4001491AA6E07FA06F3134207D058F826200E
:1085F40013781BB14946204600F0FEFF0136082ED1
:10860400EFD1B1E72C4D3549204600F0F5FF2B4959
:108614006A6C204600F0F0FF95F86930590703D5DD
:108624002F49204600F0E8FF95F96930002B04DA61
:108634006A6F2949204600F0DFFF0826294FDFF83A
:10864400B480AB6EF340DA0707D557F826201378C9
:108654001BB14146204600F0CFFF0136102EF0D169
:1086640095F86830002B7FF47FAF1F4955E7124D12
:108674001E49204600F0C0FF6A6C1049204600F0F5
:10868400BBFF1026174FDFF86C80AB6EF340DB079F
:1086940007D557F8262013781BB14146204600F031
:1086A400ABFF01361A2EF0D15EE711494BE700BF4C
:1086B40021AF03005EAF0300000000208EAF030073
:1086C400A7AF0300C1AF0300D9AF030013B0030089
:1086D40046B0030082B00300A7B00300CBB0030090
:1086E400E2B00300B0AE030028B1030058B10300A8
:1086F40071B10300C3B003002DE9F84F064600250D
:10870400154C164FDFF85C80DFF85CA023785FFA25
:1087140085FB0BB9BDE8F88F57F8043B2246104996
:10872400304600F054FF227804F1010982B96278DE
:1087340082B10BF0030103290CBF41465146304678
:1087440000F045FF304609F073FC01354C46DDE787
:108754004C46E8E74146F2E740B30300040000203A
:1087640018AF0300778E03000CD0030000F00CB8A0
:1087740000F00AB800F008B800F006B800F004B839
:1087840000F002B800F000B872B61EF0080F09D06D
:108794001EF0040F0DD0DFF850E0AEE8FF1F6FF0BD
:1087A40002000CE0DFF840E0AEE8FF1F6FF00E00BF
:1087B40005E0DFF834E0AEE8FF1F6FF0060069461D
:1087C400EFF309828EE8070086460848084C854581
:1087D40001D3A54501D384F30888FFF7D3FB84F3C1
:1087E400088822F051FB000004000020C011002082
:1087F400E01A0020FFF7C6BF002310B51946042273
:10880400012003F0B5F9BDE8104001210023042242
:10881400084603F0ADB90000084A12F8301002EB24
:10882400C002536801229A4030234B4341F21001A5
:1088340003F1804303F570335A50704774B9030051
:10884400084A12F8301002EBC002536801229A4021
:1088540030234B4342F2100103F1804303F570339C
:108864005A50704774B90300084A12F8301002EBEA
:10887400C002536801229A4030234B4343F2100153
:1088840003F1804303F570335A50704774B9030001
:108894007047000037B57F2A14BF154600254BF2F8
:1088A40034629142044619D17F2241F202016846A2
:1088B4000823FFF7EFFF082225496846FDF73DFC32
:1088C40030B908237F2241F2F0116846FFF7E2FF36
:1088D400082269462046FDF7CDFB09E041F2F0127B
:1088E40091421AD11B4901388A6CC96C1D1F0BB9FE
:1088F40003B030BD013B9D4200F8012F4FEA122224
:10890400F5D1002203349A42F2D00132042A04F849
:10891400011F4FEA1121F6D1EAE701F47042B2F5E2
:10892400805F07D1C1F30B0404F17E649AB203FBA8
:108934000541D0E701F46042B2F5005FD8D1C1F33C
:108944000B0405499AB2214403FB0511C3E700BF98
:1089540020BA03000080E00F00E00F0070B5054668
:1089640016461C46DBB14BF23463994210D1082CF5
:1089740028BF08247F2241F202012346FFF78AFF21
:10898400A2B207492846FDF7D8FB40B941F2F011DD
:10899400234632462846BDE87040FFF77BBF70BDD2
:1089A40020BA03002DE9F04F0E46C10785B00446F6
:1089B400154603D594215A48FFF7CAFAEA0703D5A6
:1089C40095215748FFF7C4FA04F47049B9F5805F5C
:1089D40062D1C4F30B0404F17E646B1E514A234438
:1089E4009342A24603D99A214D48FFF7B1FA4C4B62
:1089F4000AEB050BD34562D114F0030311D0A4F1A3
:108A040002080234A30703D0BC214548FFF7A0FAAB
:108A14004FF6FF7336F8022B023D43EA02430293FA
:108A2400012315F0030A0BD0023D25F00102B25ACE
:108A34004FF0010A6FEA02426FEA12426719039289
:108A4400B9F5805F46D153B1042202A9C8F30B00E3
:108A540003F05AFA18B1E2213148FFF779FA55B117
:108A64002A463146C4F30B0003F04EFA18B1E9214B
:108A74002B48FFF76DFABAF1000F0AD0042203A9BC
:108A8400C7F30B0003F040FA18B1F0212448FFF7B4
:108A94005FFA05B0BDE8F08F04F46043B3F5005FFE
:108AA40005D1214BC4F30B041C44A2469FE7A1212A
:108AB4001B48FFF74DFA6FF00F0A002497E71AF8E6
:108AC400012BFF2A96D01846AB210193FFF740FAF9
:108AD400019B8FE75BB1012202A9404622F082F993
:108AE40010F0FF0F03D0F6210D48FFF731FA4DB116
:108AF4006A083146204622F041F918B1FF2108489E
:108B0400FFF726FABAF1000FC3D0012203A93846B1
:108B140022F068F910F0FF0FBBD040F20511B5E761
:108B240094B90300FF1FE00F00E00F00FFF71EBE23
:108B34001FB5144A01AB10685168128903C31A8027
:108B440001238DF804300D238DF80A3003230E4CD5
:108B5400082123208DF80B3002F074FD01A9204672
:108B640003F003FC4FF40061022342F21800074AA9
:108B7400C2F884112350516041F21C02A35004B086
:108B840010BD00BF28BA03000080014A00E100E0E4
:108B9400014803F0D9BB00BF0080014AA52803D1D6
:108BA4000021024803F0C1BB704700BF0080014AA6
:108BB400024B586800F00100704700BF0080014A72
:108BC400024A536A002BFCD1704700BF0080014A5F
:108BD40000207047002070477047000007B572B648
:108BE40002F0D9FE864B87495B6940228B600023E3
:108BF4000B764B768B76F023CB760B774B778B7794
:108C0400CA77802281F8202081F82130E023602077
:108C140081F822307C4B81F8232083F8002383F8E9
:108C2400012383F8022383F8032383F8042383F8BE
:108C3400052383F8062383F8072383F8082383F89E
:108C4400092383F80A2383F80B2383F80C2383F87E
:108C54000D2383F80E2383F80F2383F8102383F85E
:108C6400112383F8122383F8132383F8142383F83E
:108C7400152383F8162383F8172383F8182383F81E
:108C8400192383F81A2383F81B2383F81C2383F8FE
:108C94001D2383F81E2383F81F2383F8202383F8DE
:108CA4002103202083F8222383F8232383F8242319
:108CB40083F8252383F8262383F8272383F828239E
:108CC40083F8292383F82A2383F82B0383F82C03BE
:108CD40083F82D2383F82E2383F82F2383F830235E
:108CE40083F8312383F8322383F8332383F834233E
:108CF40083F8352383F8362383F8372383F838231E
:108D040083F8392383F83A2383F83B2383F83C23FD
:108D1400CB6823F4E0631B041B0C43F0BF6343F4F0
:108D24000133CB604B6943F010034B614FF4E023F4
:108D34004B62FFF7C3FAEFF308834FF0CD31334AA8
:108D4400043B934258D2324A002192B23148FDF793
:108D5400EDF962B6684603F0FFF82F4B9B6DDB0319
:108D640018D42E4A136823F4FF0323F4FE4343F478
:108D7400BC1343F4A063136052F8043C23F470431F
:108D840043F4404342F8043C52F8043C43F4E063A7
:108D940042F8043C9DF80130012B0FD19DF80030BE
:108DA40063B94FF000531B681D4B1B681D4B1B68B8
:108DB4001D4B1B681D4B1B681D4B1B6802224FF08B
:108DC40040231A6705F076F800F0F4FF01F06AFA20
:108DD400002300938DF80430012368468DF8033096
:108DE40002F075FE00F026F922F092F8114822F004
:108DF400EFF803B05DF804FB1960043BA1E700BF82
:108E04000040000000ED00E000E100E080110020DF
:108E1400AC100000A000002000C0004034C000409E
:108E2400004000200080002000C00020000001203D
:108E34000040012084F0030040F2016022F024B8D5
:108E4400FDF72ABD08B500210B20FDF723FDBDE881
:108E54000840FDF722BD032000F062BA08B5FFF711
:108E64007DFA044B0B289ABF00B203EB800018462E
:108E740008BD00BF7ABB030008B5FFF775FA044BC1
:108E8400C0F30F2253F82230C0B203EB800008BDB8
:108E940044BB030010B5FFF761FA0446FFF764FA18
:108EA400C0B228B9012C24D164F07F04E4B216E0E6
:108EB400072CF9D801A353F824F000BFE38E000077
:108EC400AD8E0000E18E0000E78E0000E78E00000A
:108ED400EB8E0000EF8E0000F38E00000924204684
:108EE40010BD0224FBE70324F9E70B24F7E706246B
:108EF400F5E70446F3E700BF07282DE9F84F0446D9
:108F04000F462DD0082808BF022421460120FCF773
:108F140064FCFFF74DFE651ED5F1000848EB05081B
:108F240000B3012C1ED1A520FFF738FE2646EFF32F
:108F34001089012383F31088EFF3118A4FF0000B9B
:108F44008BF31188354D404609F098FA631EC5F835
:108F540000B0042B59D8DFE803F00E4D4D515500F5
:108F64000324D2E7FFF724FE18B1FFF729FE0026F9
:108F7400DDE70646DBE72A4A136923F0040313619D
:108F840030BF284AD2F82434D2F8202413409BB2AC
:108F9400254A2B60D2F80011480102D51168490115
:108FA40006D4D2F80011880105D51268910102D5C2
:108FB40043F480332B601C4BD3F80021520506D5B3
:108FC4001B685B0542BF2B6843F400332B601EB162
:108FD4000121164803F0A9F9404609F06FFACFB110
:108FE4008AF3118889F310882146BDE8F84F0020E0
:108FF400FCF7F3BB012002F03DFDC2E7012002F0C3
:109004004DFDBEE702F04CFDBBE784210848FEF7A6
:109014009FFFB6E787F31088E6E700BF3C230020F4
:1090240000ED00E000C0034000E100E00080014AE0
:10903400AABB030042F22041044AD2F820341B0C9C
:109044001B045350024A1360704700BF00C0034022
:10905400382300200021FFF74FBFFFF7FBBF0000BC
:109064002DE9F04F89B02AF0AFFD0746002840F003
:10907400DD806F4E6F4D3168286829F0A7FF0446E4
:10908400002827D033683C46D3E900019A69126866
:109094009047336804A89B699B689847336802200B
:1090A4009B69DB689847326805985368E7B2B3FB5D
:1090B400F0F3BB42916904F1010442D8CB6800206B
:1090C400984733689B695B6898473168286829F03A
:1090D4007DFF04460026DFF88891002C53D1564BBF
:1090E4004FEA8608F35C002B31D1A246534BF35C64
:1090F4000193534B03EB080B019B5FFA8AF7BB42C6
:10910400286853D84F4BF35C002B3CD04C4B019F49
:109114009844FBB27E2B286835D8D8F8003003AACF
:1091240007EB030A514602AB2AF0C8F948452AD096
:10913400514628682AF008FA013704460028E8D086
:1091440021E012680B6907FB00209847ABE73C4B12
:1091540003AA53F82670286802AB39462AF0AEF900
:10916400484507D078B9039B012B0CD039462868B1
:109174002AF0EAF9344B394653F8083028681A685B
:109184002AF0C6F8044601362E2EA6D1B4FA84F38A
:109194002E4A5B0913702E4B9C4241D02DD8002CD3
:1091A40032D0013B9C423FD0C5242DE0DBF8003097
:1091B40003AA1F44394602AB2AF080F948450AD075
:1091C40010B10AF1010A97E7039B8BB9214B029A6C
:1091D400F35C9A42F5D01F4B1B4A9B5D52F8082062
:1091E4003946286829F0C8FF0028EAD0044689E7F0
:1091F400394628682AF0A8F9EDE7174B9C4211D0AC
:1092040004339C42D0D1C1242B681B7C23B14FF47E
:1092140089711248FEF79CFE204609B0BDE8F08F24
:10922400C324F1E7C424EFE7C224EDE7C624F3E73F
:10923400EC1C0020E81C0020709403008A930300B7
:10924400CC9403009E940300B893030040230020B1
:1092540002E000F08495030004E000F038BC030051
:109264000BE000F0FF2970B506460D4614461AD8E7
:109274000F4A1278DAB10F4A10680F4A52F82110D7
:109284000E4A525D3AB132462AF090F878B1BDE800
:109294007040FCF770BE7F2C08BF00243246214486
:1092A40029F096FFF2E7BDE87040FFF757BB70BDA9
:1092B40040230020E81C0020CC9403007094030099
:1092C400FF28F8B505460C46164619D81049097802
:1092D400E1B11049104F0868104951F825107D5D1F
:1092E4003DB112682AF014F880B1BDE8F840FCF7EB
:1092F40042BE7F2C08BF0024214429F03DFFF3E740
:109304001A463146BDE8F840FFF74CBBF8BD00BF34
:1093140040230020E81C002070940300CC94030038
:1093240008B5084B1B7863B1074B002253F8201093
:10933400064B18682AF07AF818B1BDE80840FCF723
:109344001ABE08BD40230020CC940300E81C002072
:1093540070B5164685180AB9304470BD01F00F0384
:109364000A2B34BF30243724013A2344090905F871
:10937400013DD2B2EFE70000F0B5F9B100281CDAE4
:109384002D23B0F1004F137000D04042012115E0AD
:10939400801B8642ECB205F10105F9D904B927B165
:1093A40001274D1C30345454E9B20133092B09D13F
:1093B400303050540131C8B2F0BD002100231F46A3
:1093C400DFF808C05CF823600025E2E7C0BC0300B6
:1093D4002DE9F04F4FF0000B95B002AC81468A4660
:1093E40017461D465E46A0463B7863B902ABE41AB5
:1093F400E4B2224619465046C847002840F09380FC
:109404003444E0B290E0252B13D0BBF1000F14D10B
:109414002370013412AB9C426DD3A4EB0804E4B274
:10942400224641465046C84700287CD12644F6B21D
:1094340060E0BBF1000F00D101373B78632B00F0F3
:1094440092801BD8392B09D8302B80F09E80002BBA
:10945400CCD0252B51D04FF0000BDBE7582B00F07C
:109464008B80622BF7D14FF0000B2B6801936B6854
:109474000093009B9B4543D10835ECE7702B1ED02D
:1094840017D8642B01D06C2BE5D16C2B05F1040BA0
:1094940028686CD17B78752B14BF0121002101D081
:1094A400642B00D101372246FFF766FF04445D4672
:1094B400D1E7752BE9D0782B5ED0732BCBD1A4EBFD
:1094C4000804E4B2224602A9504605F1040B2D68B3
:1094D400C84740BB2644F6B2C4B22B5D0130002B12
:1094E400FAD1224629465046C847E0B95D4683462C
:1094F4002644F6B24446013776E723700134AAE7DE
:10950400019B204613F80B100222FFF721FF12AB38
:10951400984204460ED3A0EB0804E4B22246414626
:109524005046C84718B1002015B0BDE8F08F264456
:109534004446F6B2009B013B5B4582BF2023237067
:10954400013412AB9C420BD3A4EB0804E4B22246D0
:1095540041465046C8470028E5D126444446F6B261
:109564000BF1010B85E72B6804352370C6E7752BD7
:109574000CBF0021012196E7204602222978FFF73B
:10958400E7FE05F1040B044691E77A7802F0DF0266
:10959400582A19D1322B07F1010B09D10422204694
:1095A40029882F1DFFF7D4FE3D4604465F4652E747
:1095B400342B09D12F1D2D680422290C2046FFF7D6
:1095C400C7FE0422A9B2EDE74FF0010B22E70EB467
:1095D40003B503AA52F8041B019209F011F8C0B2B2
:1095E40002B05DF804EB03B0704700000149FFF7D7
:1095F400EEBF00BF778E03000EB433B505AA52F850
:10960400041B0546019208F0FBFF04462846FFF7B9
:10961400EDFFE0B202B0BDE8304003B0704708B5DA
:1096240008F0EEFFC0B208BD2DE9F04F9B46584B41
:1096340085B01B78064689461546109F9DF844A0C0
:10964400DDF85080002B00F09280072A00F2918010
:109654000E9B002B00F08D800F9B002B00F0898067
:10966400129BB3F5006F00F38480012801D1002F11
:109674007FD0484B03EB05131B7B002B7BD0464C60
:109684001022002168462FF0D9FA04EB4514102269
:10969400B9F1000F5CD1494620462FF0CFFAA378E8
:1096A40043F01003A370E37843F03003E370BAF19E
:1096B400000F03D1DBB243F00303E37036496A01C0
:1096C400129B885A013B63F30E100E9B01EB020CB4
:1096D4008852CCF808300F9B9DF84C10CCF804301D
:1096E4009CF80330012E61F38303CDF800B08CF8AD
:1096F400033042D113230CF1100ECCF80C309CE84B
:109704000F008EE80F006FF00301DCF81C20B9F1A4
:10971400010F61F39F02CCF81C20CCF8147004D123
:109724000F9BCCF80470CCF81830002719492A0193
:109734008B1841F80280159A28465A609F605E7320
:109744002246694602F0A4FA384605B0BDE8F08F17
:10975400002120462FF072FA1023A3700323E37034
:10976400BAF1000FAAD1DBB243F03003A5E70B48EE
:10977400EBE70B48E9E70B48E7E7B8F1000FD4D172
:109784009CF8023068F304138CF80230CDE700BF74
:10979400C424002044230020C4230020028000F0BD
:1097A400018000F0078000F038B5104B05461B78A7
:1097B400BBB1C0B102F0F7F800230D4901EB03126D
:1097C400147B3CB92B6001231460137302F0F1F88D
:1097D400204638BD0133082BF0D102F0EAF80548E1
:1097E400F7E70548F5E70548F3E700BFC424002080
:1097F40044230020048000F0028000F0018000F087
:1098040038B502F0D0F8002305460A4AD1180C7B7B
:109814005CB91033802BF9D102F0ECF9064B2846E1
:109824001C7002F0C6F8204638BD284602F0C1F884
:109834000248F9E744230020C4240020058000F0F6
:109844000D4B10B51B78044693B1072812D802F0CB
:10985400AAF80A4B03EB04131A7B2AB100241C73E5
:1098640002F0A7F8204610BD02F0A3F80448FAE776
:109874000448F8E70448F6E7C42400204423002001
:10988400068000F0028000F0018000F0164B13B552
:109894001868002301908DF8043002F084F8134B0B
:1098A4001C7824B102F085F8114802B010BD0122E1
:1098B4001A7002F07EF80F4B1C731C7783F82C404F
:1098C40083F83C4083F84C4083F85C4083F86C4058
:1098D40083F87C4004230DEB03008DF8073002F07D
:1098E400ADF92046E1E700BFE4BC0300C424002036
:1098F400038000F04423002010B588B00E9C009231
:1099040007940D9C024606949DF8304005940B9CE8
:1099140004949DF8284003940024CDE901342046A2
:109924000B462146FFF780FE08B010BD10B588B085
:109934000E9C009207940D9C024606949DF83040BC
:1099440005940B9C04949DF8284003940024CDE9CD
:10995400013420460B460121FFF766FE08B010BD16
:1099640008B50A4B1B785BB107280BD8084B03EBEF
:1099740000131B7B43B1002102F050F9002008BD05
:109984000448FCE70448FAE70448F8E7C424002044
:1099940044230020028000F0018000F0078000F0E2
:1099A40008B50A4B1B785BB107280BD8084B03EBAF
:1099B40000131B7B43B1012102F030F9002008BDE4
:1099C4000448FCE70448FAE70448F8E7C424002004
:1099D40044230020028000F0018000F0078000F0A2
:1099E40008B50A4B1B7853B107280AD8084B03EB78
:1099F40000131B7B3BB102F09BF9002008BD054816
:109A0400FCE70548FAE70548F8E700BFC42400204E
:109A140044230020028000F0018000F0078000F061
:109A24000D4B1B7893B1072812D889B10B4B03EB6C
:109A340000131B7B73B10A4BDA6A012303FA00F0AB
:109A440010401ABF00200B7008707047054870471B
:109A54000548704705487047C4240020442300206B
:109A640000000440028000F0018000F0078000F054
:109A74000B4B10B51B780C4663B107280CD859B1B1
:109A8400084B03EB00131B7B43B102F063F9206026
:109A9400002010BD0448FCE70448FAE70448F8E74E
:109AA400C424002044230020028000F0018000F040
:109AB400078000F02DE9F843174B1F6D5B6D1F40C5
:109AC40000D5FEE701260025144CDFF85480DFF8AA
:109AD4005490374217D02368C8F800609BB1A1683E
:109AE40062680131A16028469847637B012B0AD143
:109AF40048B909EB4513197B1A7F60F3410160F300
:109B0400410219731A770135082D4FEA460604F10C
:109B14001004DED1BDE8F883000004404423002093
:109B240050200440C423002070B504460125084E8B
:109B340004B970BD94FAA4F0B0FA80F005FA00F309
:109B440024EA030456F82030002BF1D09847EFE7BD
:109B5400C82400204FF00072044BC3F880211A601F
:109B64004FF08062C3F880211A60704700E100E082
:109B740038B504460D4601F016FF034B43F8245054
:109B8400BDE8384001F015BFC8240020084BD3F8C5
:109B94002404D3F82024104042F2204220F42A5016
:109BA40020F02A004004400C9850FFF7BDBF00BFCE
:109BB40000C00340084BD3F82404D3F820241040F9
:109BC40042F2204220F4AA4020F055000004000C88
:109BD4009850FFF7A9BF00BF00C003404FF0904367
:109BE4009A6A1207FCD4186A704700002DE9F84FEE
:109BF4004FF0000A80464FF000094FF0010B254C4E
:109C040004F1A005237F84F81DA06BB1D4E90023DF
:109C1400994508BF9045104619460AD2B2EB080090
:109C240063EB0901C4E900012834AC42EAD1BDE880
